:1000000010308A0000280000FF00030E8301A100C9
:100010000A08A0008A010408A2007708A300780853
:10002000A4007908A5007A08A60003170D08031399
:10003000A70003170F080313A80003170C080313E6
:10004000A90003170E080313AA00831383128C3030
:100050008400001C2D280C1852288B1E31280B19E7
:100060005528220884002308F7002408F8002508F2
:10007000F9002608FA00270803178D000313280843
:1000800003178F000313290803178C0003132A0892
:1000900003178E00031320088A00210E8300FF0E31
:1000A0007F0E09008A110A12782A8A110A12EC2896
:1000B0000A108A100A11820728340C3401340634DD
:1000C000201020102022C9295026C12C20102010D9
:1000D00020102010000020102010A029452AD42430
:1000E000CE232010201020102010000120102010FE
:1000F000A0264127D5204C102010201020102010C1
:10010000000120102010A020552A4F102010201090
:10011000201020102010000120102010201020108E
:10012000201020102010201000012010201020107E
:10013000201020102010201020100000201020106F
:10014000AD16A0274E10AD16201020002010201054
:10015000AD16A0274623A0162D1020002010201039
:10016000AD1620234127A0162D10200020102010AE
:10017000AD1620264522A0162D102000201020109C
:10018000202A4F283A002010201020214F2A3A0020
:100190002010AD16D424CD2252104F27AD160001E9
:1001A0002010AD16D424CD2252104F23C6162D0098
:1001B0002010AD16D424CD2252104F27AD160001C9
:1001C0002010AD16D424CD2252104F23C6162D0078
:1001D0002010D424CD223A003D3081000130AE07FA
:1001E0000318AF0A42084102031D0629320B0629F3
:1001F000340BFF2883160613831206170329831670
:10020000061383120613C101B2011E292E08703C89
:10021000031D1E292F08173C031D1E29310B1E2903
:10022000320B1E290130C107AF01AE01B00803191E
:100230001C29013030021D290030B0000B118A1139
:100240000A123128680803199229F0006C08031972
:100250009229F007031833297F30F002031C9229FA
:100260000319922937298130F00703189229700861
:10027000F700F801F901FA016908F400F4176A08B7
:10028000F3006B08F2001830F000F101721C6029D5
:100290006F08FA07031C5229F90A031D5229F80AAC
:1002A0000319F1176E08F907031C5929F80A0319F5
:1002B000F1176D08EA00EA176A08F8070318F11742
:1002C000F10DF80CF90CFA0CF40CF30CF20C031011
:1002D000F00B45290130F70703189229F81B7729FD
:1002E000F40DFA0DF90DF80DF70303199229F41F17
:1002F0008829FA0A031D8829F90A031D8829F80AA2
:10030000031D8829F80CF90CFA0CF70A0319922935
:100310006908F1006D08F106F11F9029F817962978
:10032000F8139629F701F801F901FA0108006C08A1
:100330000319712A8316A4007008031DA1298312D2
:10034000712AA402031CAB297F30A407031CAA292D
:100350008312712AB5298130A4020318B1298312AE
:10036000712A031DB5298312712A2408F700F801A8
:10037000F901FA01A30183126D088316A200A217E6
:1003800083126E088316A10083126F088316A000E3
:100390001930A4007308A0020318DE290130A1025D
:1003A0000318DE29A2020318DE29A3020318DE299E
:1003B000A30AA20AA10A7308A007102A7208A102C0
:1003C0000318F9290130A2020318F929A30203181E
:1003D000F929A30AA20A7208A1077308A007031C3F
:1003E000102AA10A031D102AA20A031D102AA30A1B
:1003F000102A71088038A20203180F2A0130A302C4
:1004000003180F2AA30A71088038A2077208A107EF
:10041000031CED29A20A031DED29A30AED297A1474
:10042000A40B132A1E2A0310A00DA10DA20DA30DCB
:100430000310FA0DF90DF80DA50DCA29251C262A61
:100440000310F80CF90CFA0CA50C2A2AF70B2A2A2F
:100450008312712AA51B532A0310A00DA10DA20D12
:10046000A30D7308A00203183F2A0130A10203184C
:100470003F2AA20203183F2AA302031C642A72081F
:10048000A10203184A2A0130A20203184A2AA30231
:10049000031C642A71088038A2020318532A013011
:1004A000A302031C642AFA0A031D642AF90A031D25
:1004B000642AF80A031D642AF70A031D612A8312BD
:1004C000712AF80CF90CFA0C83126D088316A4003B
:1004D0007108A406A41F6E2AF817762AF813762A44
:1004E0008312F701F801F901FA018316831208005B
:1004F0008E013C308F00B0308E000130C7074708B6
:10050000C83C031DFB2A1F151F19842A1E08FA0068
:1005100083161E088312E8007A08E9008E30F7007F
:100520006908F8006808F900FA01F808031DA22A12
:100530007908F800F9010830F702F808031DA22A2B
:10054000F701AA2A0310F81BA92AF90DF80DF703E1
:10055000A22AF8137A08BC007908BB007808BA0010
:100560007708B9003C08EB003B08EA003A08E900CC
:100570003908E800EF01EE012030ED008130EC0099
:1005800022217A08EB007908EA007808E900770868
:10059000E8007A08EF007908EE007808ED007708A7
:1005A000EC00F301C030F2007F30F1008830F00041
:1005B00097217A08B8007908B7007808B60077085C
:1005C000B5003808EF003708EE003608ED003508B2
:1005D000EC000A30F300D730F2002330F10078301D
:1005E000F00097217A08C0007908BF007808BE00A3
:1005F0007708BD00C7010C108A110A123128C618ED
:10060000BA274E100001C618BA2746230001461922
:10061000BA274E1000014619BA27462300014C1D87
:100620004F2720004C1D4F2346002A0020002A009F
:100630002000201020102022C9295026C12C0001A2
:1006400020102010A029452AD424CE230001D43222
:100650006D38BA1230192E18660043002010AD16FE
:10066000A0264127D5204C10AD16000120102029CE
:10067000C520C42CA010A110201000012010AD1620
:10068000A0264127D5204C10AD1600012010A0292E
:10069000C82A5422CF2B4E10A11021005C308400B8
:1006A000831300080319622B0130F800F701F70BE0
:1006B000572BF80B562B4A30F700F70B5D2B602BAE
:1006C000800B542B08008810831688100816881693
:1006D0000817881783120815831608110000831263
:1006E00088158316881100008312E401831608160A
:1006F00000308312081A0130E40483168816003093
:100700008312881A0130F7000310F70D7708E4040C
:100710008316081700308312081B0130F700F70D0D
:10072000F70DFC30F7057708E404831688170030CE
:100730008312881B0130F700F70DF70DF70DF83025
:10074000F7057708E4046408F8007808E3008811E6
:100750008316881100008312881583168811000003
:100760008312E4018316081600308312081A013040
:10077000E4048316881600308312881A0130F700CB
:100780000310F70D7708E40483160817003083126E
:10079000081B0130F700F70DF70DFC30F70577085F
:1007A000E4048316881700308312881B0130F70099
:1007B000F70DF70DF70DF830F7057708E404640836
:1007C000F8007808E2008811831688110812881250
:1007D000081388138312630EF700F030F7057708CB
:1007E0006204F8007808E200E21FF82B8316662BFB
:1007F000E008031DFD2B8810FE2B8814831688103B
:10080000000083120811831608110000831288115A
:10081000831688118312610EE2000F30E205620830
:10082000E3006318152C0812162C081683160812FC
:100830008312E3181D2C88121E2C8816831688122A
:1008400083126319252C0813262C08178316081306
:100850008312E3192D2C88132E2C881783168813E6
:1008600000008312881583168811362C8312881194
:1008700083168811831261080F39E2006208E300D1
:100880006318442C0812452C08168316081283128C
:10089000E3184C2C88124D2C88168316881283126C
:1008A0006319542C0813552C081783160813831248
:1008B000E3195C2C88135D2C8817831688130000BD
:1008C0008312881583168811652C8312881183166C
:1008D00088118312080083160812881208138813DF
:1008E00088118810081183128810831688108312CB
:1008F00008118316081183128811831688110F308E
:100900008312DC004E230130CE004E08033C031C52
:10091000BA2C0330E30063188F2C0812902C0816B1
:10092000831608128312E318972C8812982C8816C5
:1009300083168812831263199F2C0813A02C0817A2
:10094000831608138312E319A72C8813A82C881781
:100950008316881300008312881583168811B02C23
:10096000831288118316881105308312DC004E2310
:10097000CE0A852C0230E3006318C02C0812C12C6B
:100980000816831608128312E318C82C8812C92C83
:1009900088168316881283126319D02C0813D12C61
:1009A0000817831608138312E319D82C8813D92C3F
:1009B0008817831688130000831288158316881100
:1009C000E12C83128811831688118312CE014E0800
:1009D000033C031CF42C4E085820CF00E0014F08C4
:1009E000E1006323CE0AE72C8A110A1627285D0B43
:1009F000FB2CDE010F2D5D08023C031D022D403053
:100A0000DE000F2D5D08033C031D092D1430DE00B0
:100A10000F2D5D08043C031D0F2D5430DE00013006
:100A20005C02DE075E088038DF00E0015F08E1005D
:100A3000632308005B080C3A0319252D063A0319B5
:100A40002D2D023A0319332D382DE0010130E1003C
:100A500063230230DC004E233D2D0130DC000230E8
:100A6000DD00F7243D2DE0011030E10063233D2D32
:100A70000130E0005B08E100632308000B08D000B0
:100A80008B13831603178C170C14000000008312BD
:100A90000313D01B8B1703170C087F390319922DF2
:100AA0000313D00003170D080313D10003170F0819
:100AB0000313D2005008DB001A25510803178D00DC
:100AC0000313520803178F0003130B08D3008B1373
:100AD000831603178C170C140000000083120313F5
:100AE000D31B8B1703170C0D0E0D7F390319922D95
:100AF0000313D00003170D080313D10003170F08C9
:100B00000313D2005008DB001A25510803178D008B
:100B10000313520803178F008D0A03198F0A03135A
:100B20003E2D0317031308008E013C308F00B030B8
:100B30008E0083160C14C03083128B048A110A169F
:100B400082280130DC00DD00F724603003178D00BF
:100B500000308F0003133E250130DC000230DD0041
:100B6000F7246B3003178D0000308F0003133E25F0
:100B70000130DC004E08DD00F7243E30DB001A2592
:100B800008000130DC00DD00F7248C3003178D00F5
:100B900000308F0003133E250130DC000230DD0001
:100BA000F724953003178D0000308F0003133E2586
:100BB0000800861FE82D0230DC000130DD00F7243C
:100BC000FF3003178D0002308F0003133E25F42DF4
:100BD0000230DC000130DD00F724033003178D0004
:100BE00003308F0003133E25871C032E0A30DC00E0
:100BF0000130DD00F724073003178D0003308F002C
:100C000003133E250F2E0A30DC000130DD00F724EF
:100C10000B3003178D0003308F0003133E25061F92
:100C20001D2E0230DC00DD00F7240F3003178D008D
:100C300003308F0003133E25282E0230DC00DD0038
:100C4000F724123003178D0003308F0003133E2565
:100C50008A110A16C5280B08CF008B1383160317B9
:100C60008C170C140000000083120313CF1B8B178A
:100C70000318622E03170C087F390313CF000317E4
:100C80000D080313D00003170F080313D1004F08FA
:100C9000DB001A25500803178D00031351080317B2
:100CA0008F0003130B08D2008B13831603178C17C6
:100CB0000C140000000083120313D21B8B17CE0B01
:100CC000622E812E03170C0D0E0D7F390313CF00FA
:100CD00003170D080313D00003170F080313D100E7
:100CE0004F08DB001A25500803178D000313510825
:100CF00003178F008D0A03198F0A03100313CE0BFD
:100D00002B2E8A110A16E1285108D8005508D8065A
:100D1000D81F8F2E03110310D11B0314C22E5108AC
:100D2000D8005408D9005008D90203199D2ED81FA5
:100D3000C22E0308013A8300C22E5508D90051087B
:100D4000D9020319A92ED81FC22E0308013A830025
:100D5000C22E5608D9005208D9020319B52ED81F41
:100D6000C22E0308013A8300C22E5708D900530847
:100D7000D9020319C12ED81FC22E0308013A8300DD
:100D8000C22E03100800E9014E08E8008E30F7007B
:100D90006908F8006808F900FA01F808031DDA2E5E
:100DA0007908F800F9010830F702F808031DDA2E77
:100DB000F701E22E0310F81BE12EF90DF80DF703F1
:100DC000DA2EF8137A08D3007908D2007808D10017
:100DD0007708D0004008D7003F08D6003E08D5006D
:100DE0003D08D4008426031C002F8316861383122B
:100DF0008617CD104D088316870083128714AF2FF6
:100E0000E9014F08E8008E30F7006908F80068082B
:100E1000F900FA01F808031D172F7908F800F90105
:100E20000830F702F808031D172FF7011F2F0310D2
:100E3000F81B1E2FF90DF80DF703172FF8137A087A
:100E4000D3007908D2007808D1007708D000400894
:100E5000D7003F08D6003E08D5003D08D4008426C0
:100E60000318342F031D732FE9014E08E8008E305C
:100E7000F7006908F8006808F900FA01F808031D8E
:100E80004B2F7908F800F9010830F702F808031D24
:100E90004B2FF701532F0310F81B522FF90DF80DAC
:100EA000F7034B2FF8134008D3003F08D2003E0849
:100EB000D1003D08D0007A08D7007908D60078081C
:100EC000D5007708D40084260318682F031D732FDC
:100ED0008316861383128617CD104D08831687005C
:100EE00083128710AF2FE9014F08E8008E30F7001A
:100EF0006908F8006808F900FA01F808031D8A2F4C
:100F00007908F800F9010830F702F808031D8A2F64
:100F1000F701922F0310F81B912FF90DF80DF7032D
:100F20008A2FF8134008D3003F08D2003E08D100B2
:100F30003D08D0007A08D7007908D6007808D50097
:100F40007708D4008426031CAF2F861383168613DC
:100F50008312CD104D088316870083128710080076
:100F60000130DC00DD00F724763003178D000030FF
:100F70008F0003133E250130DC000230DD00F72432
:100F8000813003178D0000308F0003133E250130A0
:100F9000DC004E08DD00F7243E30DB001A25080097
:100FA0000130DC00DD00F7249E3003178D00003097
:100FB0008F0003133E250130DC000230DD00F724F2
:100FC000A63003178D0000308F0003133E2501303B
:100FD000DC004E08DD00F7243E30DB001A25080057
:101000000408D3005208D50003192728AB018B1B15
:10101000AB178B135108EB005008EA004F08E900AA
:101020004E08E800EF01EE012030ED008230EC00C8
:101030008A1122218A15AB1B8B177A08D1007908F7
:10104000D0007808CF007708CE00D50B06285108CD
:10105000DE005008DD004F08DC004E08DB005B08B6
:10106000B63CDB00FA015C08DF00DC170310DC0C87
:10107000DD0CDE0CFA0CF90CF80CF70CDB0B362847
:10108000DF1F4D28F709F809F909FA09F70A0319CA
:10109000F80A0319F90A0319FA0A7A08D10079083B
:1010A000D0007808CF007708CE00D11F6428D30382
:1010B000D316CE09CF09D009D109CE0A0319CF0A18
:1010C0000319D00A0319D10A3B30DA009A30D9004B
:1010D000CA30D800D7010A30D50052080319D30A04
:1010E00083144E30840083135108DE005008DD0065
:1010F0004F08DC004E08DB005A08E2005908E10006
:101100005808E0005708DF008318892863308400FE
:101110008313F701F801F901FA01E301E401E501A4
:10112000E6016208610460045F040319C7282030E7
:10113000E7000310DB0DDC0DDD0DDE0DE30DE40D2E
:10114000E50DE60D62086602031DB0286108650220
:10115000031DB02860086402031DB0285F08630205
:10116000031CC1285F08E3026008031C600FE4024F
:101170006108031C610FE5026208031C620FE602AE
:101180000314F70DF80DF90DFA0DE70B9928630814
:101190008000840A64088000840A65088000840A4C
:1011A000660880007808F708031DE928520A5502EE
:1011B0000319E92853080319EB280F3955020319BD
:1011C000E32803182329D31B2329531BEB282030A2
:1011D0001D292030D305D31EFB28D3125208031D2E
:1011E000D3037708D3002D30DB008A111A258A1526
:1011F0005308F700D30152085502031D0B29770845
:10120000D3002E30DB008A111A258A155308F70007
:101210002030D30500303030D31E1D29D3125208A0
:10122000031DD3037708D3002D30DB008A111A2564
:101230008A155308F700D3013030F7077708DB0031
:101240008A111A258A1583105A08DE005908DD0014
:101250005808DC005708DB00E201E101E0010A3038
:10126000DF0083183629633084008313F701F80107
:10127000F901FA01E301E401E501E6016208610414
:1012800060045F04031974292030E7000310DB0DAC
:10129000DC0DDD0DDE0DE30DE40DE50DE60D620860
:1012A0006602031D5D2961086502031D5D29600852
:1012B0006402031D5D295F086302031C6E295F0839
:1012C000E3026008031C600FE4026108031C610F65
:1012D000E5026208031C620FE6020314F70DF80D25
:1012E000F90DFA0DE70B462963088000840A6408AB
:1012F0008000840A65088000840A660880007A08F5
:10130000DA007908D9007808D8007708D700D50B1B
:1013100070288A110A16F028DC010130DD008A11DC
:10132000F7248A15AE3003178D0000308F008A1124
:1013300003133E258A15DC010230DD008A11F724F3
:101340008A15B63003178D0000308F008A11031301
:101350003E258A150130DC004E08DD008A11F72495
:101360008A153E30DB008A111A258A1508000130E3
:10137000DC00DD008A11F7248A15BE3003178D00CA
:1013800000308F008A1103133E258A150130DC00DE
:101390000230DD008A11F7248A15C33003178D004F
:1013A00000308F008A1103133E258A150130DC00BE
:1013B0004E08DD008A11F7248A153E30DB008A11C1
:1013C0001A258A1508002030501E3030D1004F08F1
:1013D000F700F71FF329F709F70A7708CF002D3038
:1013E000D100D017501478084F08D5006430D600CB
:1013F0005608F80155020318002A5508F7000C2A70
:10140000F7010830D700D50DF70D560877020318FD
:10141000F700F80DD70B032A7708CF003030780794
:10142000D2004F08D5000A30D6005608F801550200
:1014300003181D2A5508F700292AF7010830D7009C
:10144000D50DF70D560877020318F700F80DD70BE6
:10145000202A30307707D40030307807D300510885
:10146000F700303052020319392AD014D01B50151E
:101470004D2A5108D2002030D100303053020319D8
:10148000452A5014D01BD0144D2A031D5014031D9F
:101490004D2A5208D3002030D2005019542AD018B7
:1014A000592A50185E2A632A5108DB008A111A252E
:1014B0008A155208DB008A111A258A155308DB00A9
:1014C0008A111A258A155408DB008A111A258A15F3
:1014D00008004508CE004608CF008A11C3268A15A9
:1014E0006430DC008A114E238A1583160614831299
:1014F00006188A2A831606148312061C7A2A2C0BD5
:10150000832A0230852A01302C02AC002C08CE0040
:10151000B721A02A8316861483128618A02A831660
:1015200086148312861C8F2A2C08023C031D9A2ADB
:1015300001309C2A01302C07AC002C08CE00B721CA
:1015400083160615831206190A2B2C0B0A2B8316F9
:1015500006158312061DA72A1030DC000130DD00BD
:101560008A11F7248A15153003178D0003308F0078
:101570008A1103133E258A15831606148312061852
:10158000D52A831606148312061CC12A0C30DC00EF
:101590000130DD008A11F7248A150130C50745089E
:1015A000CF001330D000E321092B83168614831259
:1015B0008618EE2A831686148312861CDA2A0C30CB
:1015C000DC000130DD008A11F7248A150130C502E4
:1015D0004508CF001330D000E321092B83160615F0
:1015E00083120619092B831606158312061DF32A8A
:1015F0001030DC000130DD008A11F7248A15163026
:1016000003178D0003308F008A1103133E258A15BE
:101610000A2BBC2A8316061583120619762B2C0872
:10162000023C031D762B831606158312061D132B11
:101630001030DC000230DD008A11F7248A151730E3
:1016400003178D0003308F008A1103133E258A157E
:101650008316061483120618412B83160614831270
:10166000061C2D2B0C30DC000230DD008A11F72423
:101670008A150130C6074608CF001330D000E32199
:10168000752B83168614831286185A2B831686149C
:101690008312861C462B0C30DC000230DD008A11E0
:1016A000F7248A150130C6024608CF001330D00057
:1016B000E321752B8316061583120619752B8316E5
:1016C00006158312061D5F2B1030DC000230DD0092
:1016D0008A11F7248A15183003178D0003308F0004
:1016E0008A1103133E258A15762B282B831686151F
:1016F00083128619872B831686158312861D7B2BF2
:101700008A11C1258A152C08CE008C21882B692AC4
:101710008A110A16762C0130DC00DD008A11F724CC
:101720008A15C83003178D0000308F008A1103130B
:101730003E258A150130DC000230DD008A11F724D5
:101740008A15D03003178D0000308F008A110313E3
:101750003E258A150130DC004F08DD008A11F72490
:101760008A153E30DB008A111A258A1508004F0BB6
:10177000C92B0130DC00DD008A11F7248A15D8302E
:1017800003178D0000308F008A1103133E258A1540
:10179000D82B0130DC00DD008A11F7248A15E030F7
:1017A00003178D0000308F008A1103133E258A1520
:1017B0000130DC000230DD008A11F7248A15E830A0
:1017C00003178D0000308F008A1103133E258A1500
:1017D0000F30DC000230DD008A11F7248A156D30ED
:1017E000DB008A111A258A15080083160614831255
:1017F00006180E2C831606148312061CFA2B0A30C8
:10180000DC000230DD008A11F7248A150130B007B0
:101810003008CF001330D000E3217A2C83168614D1
:10182000831286182C2C831686148312861C132C84
:101830000A30DC000230DD008A11F7248A15B00876
:101840000319252C01303002262C0030B000CF00C7
:101850001330D000E3217A2C831606158312061963
:10186000452C831606158312061D312C4E08CF0019
:10187000B7233008C2003D3081008B16C0308B0486
:101880000130B200AF01AE017A2C2E08703C031D6E
:10189000672C2F08173C031D672C320B672C013077
:1018A000C107AF01AE010A30DC000230DD008A1151
:1018B000F7248A15B0080319602C01303002612C1E
:1018C0000030B000CF001330D000E3217A2C831613
:1018D0008615831286197A2C831686158312861D27
:1018E0006C2C8A11C1258A154E08CF008B2301303C
:0818F000B1007B2CF52B080070
:1020000003081F3983000130AC00AD01AF01AE0100
:10201000B001B101B200B301B401C101C301C401F7
:10202000C701C801C901CA01CB01CC01FF30CD00F5
:1020300083161F149F141F159F1107309C008313D4
:102040002D308312C5002830C6000A126B2C0A16E8
:102050000130DC00DD000A12F7240A1619300317DC
:102060008D0003308F000A1203133E250A1601303B
:10207000DC000230DD000A12F7240A1620300317B4
:102080008D0003308F000A1203133E250A1601301B
:10209000DC00DD000A12F7240A163E30DB000A12CB
:1020A0001A250A1683160108C039073881008530C1
:1020B0008312900083161F1383121F179F17831616
:1020C0009F1783121F1483161F1383121F139F134E
:1020D00083169F1783121F140030F8001F08C7399A
:1020E00078049F0083160613831206138316861343
:1020F00083128613CD104D08831687008312871034
:102100000A12942D0A1683160614831206189A28AA
:10211000831606148312061C88282C0B9128023083
:10212000932801302C02AC002C08CE000A12A12505
:102130000A16B2288316861483128618B2288316CC
:1021400086148312861C9F282C08023C031DAA2893
:102150000130AC2801302C07AC002C08CE000A124C
:10216000A1250A1683160615831206196D292C0B54
:102170006D29831606158312061DB9280A12C1257A
:102180000A160130AC000A12D92D0A160230CE0010
:10219000FA30DC000A124E230A16CE0BC82808308B
:1021A000DC000230DD000A12F7240A16273003177C
:1021B0008D0003308F00031005300313CE000A1288
:1021C0002B2E0A16413084004008D1003F08D00071
:1021D0003E08CF003D08CE00D2010A128A15002821
:1021E0000A168A11DF30DB000A121A250A162D3072
:1021F00003178D0003308F000A1203133E250A16C1
:102200008316861583128619142983168615831260
:10221000861D05290A12C1250A162C08CE000A12AD
:10222000A1250A166C296B29831686168312861A35
:102230002C29831686168312861E1929C830DC00C5
:102240000A124E230A16B30803192B298316861384
:102250008030831286066B29831606168312061AAF
:102260004429831606168312061E3129C830DC0065
:102270000A124E230A16B3080319432983160613BC
:102280004030831286066B294D144D088316870053
:102290008312071862294D144D0883168700831294
:1022A000071C4B29C830DC000A124E230A16B3085B
:1022B00003196129CD104D0883168700023083125F
:1022C00087066B29430B6B294508CE004608CF00D3
:1022D0000A12C3260A16C328402D83160615831238
:1022E0000619402D2C08023C031D402D83160615AF
:1022F0008312061D76290A12C1250A162C08CE0063
:102300000A12B0270A1683160614831206189A2991
:10231000831606148312061C88292C0B912902307F
:10232000932901302C02AC002C08CE000A12B027F1
:102330000A163F2D8316861483128618B329831636
:1023400086148312861C9F292C08023C031DAA298F
:102350000130AC2901302C07AC002C08CE000A1249
:10236000B0270A163F2D8316861583128619C729B2
:10237000831686158312861DB8290A12C1250A16EE
:102380002C08CE000A12A1250A16402D3F2D8316D7
:1023900086168312861ADF29831686168312861EF6
:1023A000CC29C830DC000A124E230A16B3080319E0
:1023B000DE29831686138030831286063F2D83160E
:1023C00006168312061AF729831606168312061EAE
:1023D000E429C830DC000A124E230A16B308031998
:1023E000F629831606134030831286063F2D4D14BE
:1023F0004D088316870083120718152A4D144D08BF
:10240000831687008312071CFE29C830DC000A12DD
:102410004E230A16B3080319142ACD104D0883164B
:1024200087000230831287063F2D8316061583121C
:102430000619D32B2C0BD32B831606158312061DDE
:102440001C2A2C08CE000A12D0270A16C3018316B4
:10245000061483120618402A831606148312061CDB
:102460002C2A2C0B352A0230372A01302C02AC00E2
:102470002C08CE000A12D0270A160130CC00D12B2E
:1024800083168614831286185B2A83168614831299
:10249000861C452A2C08023C031D502A0130522A72
:1024A00001302C07AC002C08CE000A12D0270A16E7
:1024B0000130CC00D12B83168615831286196F2A22
:1024C000831686158312861D602A0A12C1250A16F4
:1024D0002C08CE000A12B0270A16D22BD12B831655
:1024E00086168312861A872A831686168312861EFC
:1024F000742AC830DC000A124E230A16B3080319E6
:10250000862A83168613803083128606D12B831683
:1025100006168312061A9F2A831606168312061EB3
:102520008C2AC830DC000A124E230A16B30803199D
:102530009E2A83160613403083128606D12B4D1433
:102540004D088316870083120718BD2A4D144D08C5
:10255000831687008312071CA62AC830DC000A12E3
:102560004E230A16B3080319BC2ACD104D08831652
:102570008700023083128706D12B8316061583123B
:1025800006194E2B2C0B4E2B831606158312061D97
:10259000C42A0130DC00DD000A12F7240A162E30AE
:1025A00003178D0003308F000A1203133E250A160D
:1025B0000130DC000230DD000A12F7240A16363042
:1025C00003178D0003308F000A1203133E250A16ED
:1025D0000130B300AC008316861583128619FF2ADA
:1025E000831686158312861DF02A0A12C1250A1643
:1025F0002C08CE000A12D0270A164D2B4C2B83161E
:1026000086168312861A172B831686168312861E49
:10261000042BC830DC000A124E230A16B308031933
:10262000162B831686138030831286064C2B831656
:1026300006168312061A2F2B831606168312061E01
:102640001C2BC830DC000A124E230A16B3080319EB
:102650002E2B831606134030831286064C2B4D1406
:102660004D0883168700831207184C2B4D144D0814
:10267000831687008312071C362BC830DC000A1231
:102680004E230A16B30803194C2BCD104D088316A0
:102690008700023083128706EB2AD12B831606159A
:1026A00083120619D12B2C08023C031DD12B831653
:1026B00006158312061D572B0130DC00DD000A12BF
:1026C000F7240A163E3003178D0003308F000A12DC
:1026D00003133E250A160130DC000230DD000A1229
:1026E000F7240A16463003178D0003308F000A12B4
:1026F00003133E250A16B3010130AC00831686157C
:1027000083128619922B831686158312861D832BBE
:102710000A12C1250A162C08CE000A12D0270A1662
:10272000D12BD02B831686168312861AA52B8316DF
:1027300086168312861E972BB3080319A42B8316C3
:102740008613803083128606D02B831606168312DA
:10275000061AB82B831606168312061EAA2BB30878
:102760000319B72B83160613403083128606D02B2D
:102770004D144D088316870083120718D02B4D1473
:102780004D08831687008312071CBF2BB30803195B
:10279000D02BCD104D088316870002308312870698
:1027A0007E2B272A3F2D83160615831206193F2DEF
:1027B0002C08023C031D3F2D831606158312061DAF
:1027C000DC2B0A12C1250A162C08CE000A128A1523
:1027D0008C210A168A110130C300C4004508CE00BE
:1027E0004608CF000A12C3260A168316061483125F
:1027F00006180E2C831606148312061CFA2B2C0BBB
:10280000032C0230052C01302C02AC002C08CE0029
:102810000A128A158C210A168A113E2D83168614F7
:1028200083128618292C831686148312861C132C77
:102830002C08023C031D1E2C0130202C01302C07DB
:10284000AC002C08CE000A128A158C210A168A11B7
:102850003E2D83168615831286193D2C8316861508
:102860008312861D2E2C0A12C1250A162C08CE00B2
:102870000A12B0270A163F2D3E2D83160615831225
:102880000619792C2C0B792C831606158312061D3C
:10289000442C0A12C1250A162C08CE000A128A15E9
:1028A000B7210A168A110C30DC000130DD000A1253
:1028B000F7240A164508CF001330D0000A128A15F3
:1028C000E3210A168A110C30DC000230DD000A1206
:1028D000F7240A164608CF001330D0000A128A15D2
:1028E000E3210A168A110A128A15692A0A168A1120
:1028F0003E2D83160615831206193E2D2C08023C28
:10290000031D3E2D831606158312061D822C0A1206
:10291000C1250A162C08CF000A128A158B230A1625
:102920008A118316061483120618AA2C831606141D
:102930008312061C962C2C0B9F2C0230A12C0130EC
:102940002C02AC002C08CF000A128A158B230A1621
:102950008A113D2D8316861483128618C52C831682
:1029600086148312861CAF2C2C08023C031DBA2C43
:102970000130BC2C01302C07AC002C08CF000A120F
:102980008A158B230A168A113D2D8316861583120C
:102990008619DB2C831686158312861DCA2C0A1213
:1029A000C1250A162C08CE000A128A158C210A1697
:1029B0008A113E2D3D2D83160615831206190C2D06
:1029C0002C0B0C2D831606158312061DE22C0A1201
:1029D000C1250A162C08CF000A128A15B7230A1639
:1029E0008A110A30DC000230DD000A12F7240A16D0
:1029F0003008CF001330D0000A128A15E3210A16DE
:102A00008A11B1010130B4002C08CE000A128A15D7
:102A1000F5230A168A113D2D831606158312061911
:102A20003D2D2C08023C031D3D2D831606158312F7
:102A3000061D152D0A12C1250A162C08CF000A12F0
:102A40008A15B7230A168A110A30DC000230DD002D
:102A50000A12F7240A163008CF001330D0000A12E9
:102A60008A15E3210A168A11B101B4012C08CE009F
:102A70000A128A15F5230A168A11912CEE2B832946
:042A80008328630044
:02400E00323F3F
:00000001FF
;PIC16F877A
;CRC=177F  CREATED="15-Jun-22 10:40"
